{
  "contractName": "Admin",
  "abi": [
    {
      "anonymous": false,
      "inputs": [
        {
          "indexed": false,
          "internalType": "address",
          "name": "userBlackList",
          "type": "address"
        },
        {
          "indexed": false,
          "internalType": "bool",
          "name": "isBlackList",
          "type": "bool"
        }
      ],
      "name": "BlackListed",
      "type": "event"
    },
    {
      "anonymous": false,
      "inputs": [
        {
          "indexed": true,
          "internalType": "address",
          "name": "previousOwner",
          "type": "address"
        },
        {
          "indexed": true,
          "internalType": "address",
          "name": "newOwner",
          "type": "address"
        }
      ],
      "name": "OwnershipTransferred",
      "type": "event"
    },
    {
      "anonymous": false,
      "inputs": [
        {
          "indexed": false,
          "internalType": "address",
          "name": "userWhiteList",
          "type": "address"
        },
        {
          "indexed": false,
          "internalType": "bool",
          "name": "isWhiteList",
          "type": "bool"
        }
      ],
      "name": "Whitelisted",
      "type": "event"
    },
    {
      "inputs": [],
      "name": "owner",
      "outputs": [
        {
          "internalType": "address",
          "name": "",
          "type": "address"
        }
      ],
      "stateMutability": "view",
      "type": "function",
      "constant": true
    },
    {
      "inputs": [],
      "name": "renounceOwnership",
      "outputs": [],
      "stateMutability": "nonpayable",
      "type": "function"
    },
    {
      "inputs": [
        {
          "internalType": "address",
          "name": "newOwner",
          "type": "address"
        }
      ],
      "name": "transferOwnership",
      "outputs": [],
      "stateMutability": "nonpayable",
      "type": "function"
    },
    {
      "inputs": [
        {
          "internalType": "address",
          "name": "_addressWhiteListed",
          "type": "address"
        }
      ],
      "name": "addToWhiteList",
      "outputs": [],
      "stateMutability": "nonpayable",
      "type": "function"
    },
    {
      "inputs": [
        {
          "internalType": "address",
          "name": "_addressBlackListed",
          "type": "address"
        }
      ],
      "name": "addToBlackList",
      "outputs": [],
      "stateMutability": "nonpayable",
      "type": "function"
    },
    {
      "inputs": [
        {
          "internalType": "address",
          "name": "_addressUser",
          "type": "address"
        }
      ],
      "name": "isWhitelisted",
      "outputs": [
        {
          "internalType": "bool",
          "name": "",
          "type": "bool"
        }
      ],
      "stateMutability": "view",
      "type": "function",
      "constant": true
    },
    {
      "inputs": [
        {
          "internalType": "address",
          "name": "_addressUser",
          "type": "address"
        }
      ],
      "name": "isBlacklisted",
      "outputs": [
        {
          "internalType": "bool",
          "name": "",
          "type": "bool"
        }
      ],
      "stateMutability": "view",
      "type": "function",
      "constant": true
    },
    {
      "inputs": [
        {
          "internalType": "address",
          "name": "_addressUser",
          "type": "address"
        }
      ],
      "name": "removeList",
      "outputs": [],
      "stateMutability": "nonpayable",
      "type": "function"
    }
  ],
  "bytecode": "0x608060405234801561001057600080fd5b5061003f61002b610044640100000000026401000000009004565b61004c640100000000026401000000009004565b610110565b600033905090565b60008060009054906101000a900473ffffffffffffffffffffffffffffffffffffffff169050816000806101000a81548173ffffffffffffffffffffffffffffffffffffffff021916908373ffffffffffffffffffffffffffffffffffffffff1602179055508173ffffffffffffffffffffffffffffffffffffffff168173ffffffffffffffffffffffffffffffffffffffff167f8be0079c531659141344cd1fd0a4f28419497f9722a3daafe3b4186f6b6457e060405160405180910390a35050565b610df58061011f6000396000f3fe608060405234801561001057600080fd5b50600436106100a5576000357c010000000000000000000000000000000000000000000000000000000090048063715018a611610078578063715018a61461012e5780638da5cb5b14610138578063f2fde38b14610156578063fe575a8714610172576100a5565b80633af32abf146100aa578063417c73a7146100da57806347ee0394146100f657806360a20c4914610112575b600080fd5b6100c460048036038101906100bf9190610a88565b6101a2565b6040516100d19190610ba3565b60405180910390f35b6100f460048036038101906100ef9190610a88565b6101f8565b005b610110600480360381019061010b9190610a88565b610439565b005b61012c60048036038101906101279190610a88565b610679565b005b6101366107a8565b005b610140610830565b60405161014d9190610b5f565b60405180910390f35b610170600480360381019061016b9190610a88565b610859565b005b61018c60048036038101906101879190610a88565b610951565b6040516101999190610ba3565b60405180910390f35b6000600160008373ffffffffffffffffffffffffffffffffffffffff1673ffffffffffffffffffffffffffffffffffffffff16815260200190815260200160002060009054906101000a900460ff169050919050565b6102006109a7565b73ffffffffffffffffffffffffffffffffffffffff1661021e610830565b73ffffffffffffffffffffffffffffffffffffffff1614610274576040517f08c379a000000000000000000000000000000000000000000000000000000000815260040161026b90610c1e565b60405180910390fd5b600260008273ffffffffffffffffffffffffffffffffffffffff1673ffffffffffffffffffffffffffffffffffffffff16815260200190815260200160002060009054906101000a900460ff1615610301576040517f08c379a00000000000000000000000000000000000000000000000000000000081526004016102f890610bbe565b60405180910390fd5b6001600260008373ffffffffffffffffffffffffffffffffffffffff1673ffffffffffffffffffffffffffffffffffffffff16815260200190815260200160002060006101000a81548160ff0219169083151502179055506000600160008373ffffffffffffffffffffffffffffffffffffffff1673ffffffffffffffffffffffffffffffffffffffff16815260200190815260200160002060006101000a81548160ff0219169083151502179055507fb05df283fc0d63b1908f977b7732784e2203a0d2ccd1280cf16706ff62c3516281600260008473ffffffffffffffffffffffffffffffffffffffff1673ffffffffffffffffffffffffffffffffffffffff16815260200190815260200160002060009054906101000a900460ff1660405161042e929190610b7a565b60405180910390a150565b6104416109a7565b73ffffffffffffffffffffffffffffffffffffffff1661045f610830565b73ffffffffffffffffffffffffffffffffffffffff16146104b5576040517f08c379a00000000000000000000000000000000000000000000000000000000081526004016104ac90610c1e565b60405180910390fd5b600160008273ffffffffffffffffffffffffffffffffffffffff1673ffffffffffffffffffffffffffffffffffffffff16815260200190815260200160002060009054906101000a900460ff1615610542576040517f08c379a000000000000000000000000000000000000000000000000000000000815260040161053990610bfe565b60405180910390fd5b60018060008373ffffffffffffffffffffffffffffffffffffffff1673ffffffffffffffffffffffffffffffffffffffff16815260200190815260200160002060006101000a81548160ff0219169083151502179055506000600260008373ffffffffffffffffffffffffffffffffffffffff1673ffffffffffffffffffffffffffffffffffffffff16815260200190815260200160002060006101000a81548160ff0219169083151502179055507fa54714518c5d275fdcd3d2a461e4858e4e8cb04fb93cd0bca9d6d34115f2644081600160008473ffffffffffffffffffffffffffffffffffffffff1673ffffffffffffffffffffffffffffffffffffffff16815260200190815260200160002060009054906101000a900460ff1660405161066e929190610b7a565b60405180910390a150565b6106816109a7565b73ffffffffffffffffffffffffffffffffffffffff1661069f610830565b73ffffffffffffffffffffffffffffffffffffffff16146106f5576040517f08c379a00000000000000000000000000000000000000000000000000000000081526004016106ec90610c1e565b60405180910390fd5b6000600160008373ffffffffffffffffffffffffffffffffffffffff1673ffffffffffffffffffffffffffffffffffffffff16815260200190815260200160002060006101000a81548160ff0219169083151502179055506000600260008373ffffffffffffffffffffffffffffffffffffffff1673ffffffffffffffffffffffffffffffffffffffff16815260200190815260200160002060006101000a81548160ff02191690831515021790555050565b6107b06109a7565b73ffffffffffffffffffffffffffffffffffffffff166107ce610830565b73ffffffffffffffffffffffffffffffffffffffff1614610824576040517f08c379a000000000000000000000000000000000000000000000000000000000815260040161081b90610c1e565b60405180910390fd5b61082e60006109af565b565b60008060009054906101000a900473ffffffffffffffffffffffffffffffffffffffff16905090565b6108616109a7565b73ffffffffffffffffffffffffffffffffffffffff1661087f610830565b73ffffffffffffffffffffffffffffffffffffffff16146108d5576040517f08c379a00000000000000000000000000000000000000000000000000000000081526004016108cc90610c1e565b60405180910390fd5b600073ffffffffffffffffffffffffffffffffffffffff168173ffffffffffffffffffffffffffffffffffffffff161415610945576040517f08c379a000000000000000000000000000000000000000000000000000000000815260040161093c90610bde565b60405180910390fd5b61094e816109af565b50565b6000600260008373ffffffffffffffffffffffffffffffffffffffff1673ffffffffffffffffffffffffffffffffffffffff16815260200190815260200160002060009054906101000a900460ff169050919050565b600033905090565b60008060009054906101000a900473ffffffffffffffffffffffffffffffffffffffff169050816000806101000a81548173ffffffffffffffffffffffffffffffffffffffff021916908373ffffffffffffffffffffffffffffffffffffffff1602179055508173ffffffffffffffffffffffffffffffffffffffff168173ffffffffffffffffffffffffffffffffffffffff167f8be0079c531659141344cd1fd0a4f28419497f9722a3daafe3b4186f6b6457e060405160405180910390a35050565b600081359050610a8281610da8565b92915050565b600060208284031215610a9e57610a9d610c8d565b5b6000610aac84828501610a73565b91505092915050565b610abe81610c4f565b82525050565b610acd81610c61565b82525050565b6000610ae0602283610c3e565b9150610aeb82610c92565b604082019050919050565b6000610b03602683610c3e565b9150610b0e82610ce1565b604082019050919050565b6000610b26602283610c3e565b9150610b3182610d30565b604082019050919050565b6000610b49602083610c3e565b9150610b5482610d7f565b602082019050919050565b6000602082019050610b746000830184610ab5565b92915050565b6000604082019050610b8f6000830185610ab5565b610b9c6020830184610ac4565b9392505050565b6000602082019050610bb86000830184610ac4565b92915050565b60006020820190508181036000830152610bd781610ad3565b9050919050565b60006020820190508181036000830152610bf781610af6565b9050919050565b60006020820190508181036000830152610c1781610b19565b9050919050565b60006020820190508181036000830152610c3781610b3c565b9050919050565b600082825260208201905092915050565b6000610c5a82610c6d565b9050919050565b60008115159050919050565b600073ffffffffffffffffffffffffffffffffffffffff82169050919050565b600080fd5b7f546865206163636f756e7420697320616c726561647920426c61636b4c69737460008201527f6564000000000000000000000000000000000000000000000000000000000000602082015250565b7f4f776e61626c653a206e6577206f776e657220697320746865207a65726f206160008201527f6464726573730000000000000000000000000000000000000000000000000000602082015250565b7f546865206163636f756e7420697320616c72656164792057686974654c69737460008201527f6564000000000000000000000000000000000000000000000000000000000000602082015250565b7f4f776e61626c653a2063616c6c6572206973206e6f7420746865206f776e6572600082015250565b610db181610c4f565b8114610dbc57600080fd5b5056fea2646970667358221220d3e5215c7380f502057c1294c2f9a8b4f6683f51e1d981c21390692b630453fc64736f6c63430008070033",
  "immutableReferences": {},
  "source": "// SPDX-License-Identifier: MIT\npragma solidity ^0.8.7;\n\nimport '@openzeppelin/contracts/access/Ownable.sol';\n\n/*\n* @title Decentralize list address\n* @author nobodyw, https://github.com/nobodyw\n* @notice Administration system with whitelist and blacklist\n*/\ncontract Admin is Ownable{\n\n    mapping(address => bool) private WhiteList;\n    mapping(address => bool) private BlackList;\n\n    event Whitelisted(address userWhiteList, bool isWhiteList);\n    event BlackListed(address userBlackList, bool isBlackList);\n\n/*\n* @notice The owner adds an address in the whiteList\n* @dev If the address was blacklisted add to whitelist\n* @param Address whitelisted\n*/\n    function addToWhiteList(address _addressWhiteListed) external onlyOwner {\n        require(!WhiteList[_addressWhiteListed], \"The account is already WhiteListed\");\n\n        WhiteList[_addressWhiteListed] = true;\n        BlackList[_addressWhiteListed] = false;\n        emit Whitelisted(_addressWhiteListed, WhiteList[_addressWhiteListed]);\n    }\n\n/*\n* @notice The owner adds an address in the blacklist\n* @dev If the address was whitelisted add to blacklist\n* @param Address blacklisted\n*/\n    function addToBlackList(address _addressBlackListed) external onlyOwner {\n        require(!BlackList[_addressBlackListed], \"The account is already BlackListed\");\n\n        BlackList[_addressBlackListed] = true;\n        WhiteList[_addressBlackListed] = false;\n        emit BlackListed(_addressBlackListed, BlackList[_addressBlackListed]);\n    }\n\n/*\n* @notice return true if address is in whitelist\n*/\n    function isWhitelisted(address _addressUser) external view returns(bool){\n        return WhiteList[_addressUser];\n    }\n\n/*\n* @notice return true if address is in blacklist\n*/\n    function isBlacklisted(address _addressUser) external view returns(bool){\n        return BlackList[_addressUser];\n    }\n\n/*\n* @notice cancels the user in all lists\n*/\n    function removeList(address _addressUser) external onlyOwner{\n        WhiteList[_addressUser] = false;\n        BlackList[_addressUser] = false;\n    }\n}",
  "sourcePath": "/workspace/smart_contract/contracts/Admin.sol",
  "compiler": {
    "name": "solc",
    "version": "0.8.7+commit.e28d00a7.Emscripten.clang"
  },
  "schemaVersion": "3.4.5",
  "updatedAt": "2022-03-05T16:27:56.553Z",
  "networkType": "ethereum",
  "devdoc": {
    "kind": "dev",
    "methods": {
      "owner()": {
        "details": "Returns the address of the current owner."
      },
      "renounceOwnership()": {
        "details": "Leaves the contract without owner. It will not be possible to call `onlyOwner` functions anymore. Can only be called by the current owner. NOTE: Renouncing ownership will leave the contract without an owner, thereby removing any functionality that is only available to the owner."
      },
      "transferOwnership(address)": {
        "details": "Transfers ownership of the contract to a new account (`newOwner`). Can only be called by the current owner."
      }
    },
    "version": 1
  },
  "userdoc": {
    "kind": "user",
    "methods": {},
    "version": 1
  }
}