{
  "contractName": "Bank",
  "abi": [
    {
      "anonymous": false,
      "inputs": [
        {
          "indexed": false,
          "internalType": "uint256",
          "name": "_amount",
          "type": "uint256"
        }
      ],
      "name": "Deposit",
      "type": "event"
    },
    {
      "anonymous": false,
      "inputs": [
        {
          "indexed": false,
          "internalType": "address payable",
          "name": "_recipient",
          "type": "address"
        },
        {
          "indexed": false,
          "internalType": "uint256",
          "name": "_amount",
          "type": "uint256"
        }
      ],
      "name": "Transfer",
      "type": "event"
    },
    {
      "inputs": [
        {
          "internalType": "uint256",
          "name": "_amount",
          "type": "uint256"
        }
      ],
      "name": "deposit",
      "outputs": [],
      "stateMutability": "payable",
      "type": "function",
      "payable": true
    },
    {
      "inputs": [
        {
          "internalType": "address",
          "name": "_address",
          "type": "address"
        }
      ],
      "name": "balanceOf",
      "outputs": [
        {
          "internalType": "uint256",
          "name": "",
          "type": "uint256"
        }
      ],
      "stateMutability": "view",
      "type": "function",
      "constant": true
    },
    {
      "inputs": [
        {
          "internalType": "address payable",
          "name": "_recipient",
          "type": "address"
        },
        {
          "internalType": "uint256",
          "name": "_amount",
          "type": "uint256"
        }
      ],
      "name": "transfer",
      "outputs": [],
      "stateMutability": "payable",
      "type": "function",
      "payable": true
    }
  ],
  "bytecode": "0x608060405234801561001057600080fd5b50610998806100206000396000f3fe608060405260043610610051576000357c01000000000000000000000000000000000000000000000000000000009004806370a0823114610056578063a9059cbb14610093578063b6b55f25146100af575b600080fd5b34801561006257600080fd5b5061007d60048036038101906100789190610508565b6100cb565b60405161008a91906106f5565b60405180910390f35b6100ad60048036038101906100a89190610535565b610113565b005b6100c960048036038101906100c49190610575565b6103f7565b005b60008060008373ffffffffffffffffffffffffffffffffffffffff1673ffffffffffffffffffffffffffffffffffffffff168152602001908152602001600020549050919050565b60008111610156576040517f08c379a000000000000000000000000000000000000000000000000000000000815260040161014d906106b5565b60405180910390fd5b8173ffffffffffffffffffffffffffffffffffffffff163373ffffffffffffffffffffffffffffffffffffffff1614156101c5576040517f08c379a00000000000000000000000000000000000000000000000000000000081526004016101bc90610675565b60405180910390fd5b806000803373ffffffffffffffffffffffffffffffffffffffff1673ffffffffffffffffffffffffffffffffffffffff168152602001908152602001600020541015610246576040517f08c379a000000000000000000000000000000000000000000000000000000000815260040161023d906106d5565b60405180910390fd5b6000808373ffffffffffffffffffffffffffffffffffffffff1673ffffffffffffffffffffffffffffffffffffffff16815260200190815260200160002054816000808573ffffffffffffffffffffffffffffffffffffffff1673ffffffffffffffffffffffffffffffffffffffff168152602001908152602001600020546102cf9190610721565b1015610310576040517f08c379a000000000000000000000000000000000000000000000000000000000815260040161030790610695565b60405180910390fd5b806000803373ffffffffffffffffffffffffffffffffffffffff1673ffffffffffffffffffffffffffffffffffffffff168152602001908152602001600020600082825461035e9190610777565b92505081905550806000808473ffffffffffffffffffffffffffffffffffffffff1673ffffffffffffffffffffffffffffffffffffffff16815260200190815260200160002060008282546103b39190610721565b925050819055507f69ca02dd4edd7bf0a4abb9ed3b7af3f14778db5d61921c7dc7cd545266326de282826040516103eb92919061064c565b60405180910390a15050565b6000811161043a576040517f08c379a0000000000000000000000000000000000000000000000000000000008152600401610431906106b5565b60405180910390fd5b806000803373ffffffffffffffffffffffffffffffffffffffff1673ffffffffffffffffffffffffffffffffffffffff16815260200190815260200160002060008282546104889190610721565b925050819055507f4d6ce1e535dbade1c23defba91e23b8f791ce5edc0cc320257a2b364e4e38426816040516104be91906106f5565b60405180910390a150565b6000813590506104d88161091d565b92915050565b6000813590506104ed81610934565b92915050565b6000813590506105028161094b565b92915050565b60006020828403121561051e5761051d610828565b5b600061052c848285016104c9565b91505092915050565b6000806040838503121561054c5761054b610828565b5b600061055a858286016104de565b925050602061056b858286016104f3565b9150509250929050565b60006020828403121561058b5761058a610828565b5b6000610599848285016104f3565b91505092915050565b6105ab816107bd565b82525050565b60006105be602983610710565b91506105c98261082d565b604082019050919050565b60006105e1603683610710565b91506105ec8261087c565b604082019050919050565b6000610604601483610710565b915061060f826108cb565b602082019050919050565b6000610627600e83610710565b9150610632826108f4565b602082019050919050565b610646816107ef565b82525050565b600060408201905061066160008301856105a2565b61066e602083018461063d565b9392505050565b6000602082019050818103600083015261068e816105b1565b9050919050565b600060208201905081810360008301526106ae816105d4565b9050919050565b600060208201905081810360008301526106ce816105f7565b9050919050565b600060208201905081810360008301526106ee8161061a565b9050919050565b600060208201905061070a600083018461063d565b92915050565b600082825260208201905092915050565b600061072c826107ef565b9150610737836107ef565b9250827fffffffffffffffffffffffffffffffffffffffffffffffffffffffffffffffff0382111561076c5761076b6107f9565b5b828201905092915050565b6000610782826107ef565b915061078d836107ef565b9250828210156107a05761079f6107f9565b5b828203905092915050565b60006107b6826107cf565b9050919050565b60006107c8826107cf565b9050919050565b600073ffffffffffffffffffffffffffffffffffffffff82169050919050565b6000819050919050565b7f4e487b7100000000000000000000000000000000000000000000000000000000600052601160045260246000fd5b600080fd5b7f7472616e73666572206f6e6c7920776f726b73207769746820616e206163636f60008201527f756e74206f746865720000000000000000000000000000000000000000000000602082015250565b7f6e6f75732061766f6e7320756e2070726f626c656d65206c6f7273206465207660008201527f6f747265207472616e73666572206427617267656e7400000000000000000000602082015250565b7f54686520616d6f756e7420697320746f206c6f77000000000000000000000000600082015250565b7f596f75206c61636b2066756e6473000000000000000000000000000000000000600082015250565b610926816107ab565b811461093157600080fd5b50565b61093d816107bd565b811461094857600080fd5b50565b610954816107ef565b811461095f57600080fd5b5056fea2646970667358221220ffae0e1a3a925602007da4a9f3f76fcc9e91c80764d7040e5f12acc242654e8164736f6c63430008070033",
  "immutableReferences": {},
  "source": "// SPDX-License-Identifier: MIT\npragma solidity ^0.8.7;\n\n/*\n* @title operation of a simple decentralized bank\n* @author nobodyw, https://github.com/nobodyw\n* @notice contract allows you to deposit funds, see your balance, withdraw your funds\n* @dev the funds used are fictitious funds and in no case ERC-20\n*/\ncontract Bank{\n    mapping(address => uint) private _balances;\n\n    event Deposit(uint _amount);\n    event Transfer(address payable _recipient, uint _amount);\n\n/*\n* @notice deposit allows to deposit a value in the contract\n* @dev the funds used are fictitious funds and in no case ERC-20\n*/\n    function deposit(uint _amount) public payable{\n        require(_amount > 0, \"The amount is to low\");\n        _balances[msg.sender] += _amount;\n        emit Deposit(_amount);\n    }\n\n/*\n* @notice allows to see the balance in the contract in relation to our user address\n*/\n    function balanceOf(address _address) external view returns(uint){\n        return _balances[_address];\n    }\n\n/*\n* @notice allows you to send funds to any address\n* @dev the funds used are fictitious funds and in no case ERC-20\n*/\n    function transfer(address payable _recipient, uint _amount) public payable{\n        require(_amount > 0, \"The amount is to low\");\n        require(msg.sender != _recipient,'transfer only works with an account other');\n        require(_balances[msg.sender] >= _amount,\"You lack funds\");\n        require(_balances[_recipient] + _amount >= _balances[_recipient],\"nous avons un probleme lors de votre transfer d'argent\");\n\n        _balances[msg.sender] -= _amount;\n        _balances[_recipient] += _amount;\n        emit Transfer(_recipient, _amount);\n    }\n}",
  "sourcePath": "/workspace/smart_contract/contracts/Bank.sol",
  "compiler": {
    "name": "solc",
    "version": "0.8.7+commit.e28d00a7.Emscripten.clang"
  },
  "schemaVersion": "3.4.5",
  "updatedAt": "2022-03-05T16:27:56.152Z",
  "networkType": "ethereum",
  "devdoc": {
    "kind": "dev",
    "methods": {},
    "version": 1
  },
  "userdoc": {
    "kind": "user",
    "methods": {},
    "version": 1
  }
}