{
  "contractName": "Voting",
  "abi": [
    {
      "anonymous": false,
      "inputs": [
        {
          "indexed": true,
          "internalType": "address",
          "name": "previousOwner",
          "type": "address"
        },
        {
          "indexed": true,
          "internalType": "address",
          "name": "newOwner",
          "type": "address"
        }
      ],
      "name": "OwnershipTransferred",
      "type": "event"
    },
    {
      "anonymous": false,
      "inputs": [
        {
          "indexed": false,
          "internalType": "enum Voting.WorkflowStatus",
          "name": "_oldWorkFlow",
          "type": "uint8"
        },
        {
          "indexed": false,
          "internalType": "enum Voting.WorkflowStatus",
          "name": "_newWorkFlow",
          "type": "uint8"
        }
      ],
      "name": "changeWorkflowStatus",
      "type": "event"
    },
    {
      "anonymous": false,
      "inputs": [
        {
          "indexed": false,
          "internalType": "bool",
          "name": "_secondTurn",
          "type": "bool"
        }
      ],
      "name": "eventCountVote",
      "type": "event"
    },
    {
      "anonymous": false,
      "inputs": [
        {
          "components": [
            {
              "internalType": "address",
              "name": "proposalAddress",
              "type": "address"
            },
            {
              "internalType": "string",
              "name": "description",
              "type": "string"
            },
            {
              "internalType": "uint256",
              "name": "voteCount",
              "type": "uint256"
            },
            {
              "internalType": "uint256",
              "name": "numberFinalist",
              "type": "uint256"
            }
          ],
          "indexed": false,
          "internalType": "struct Voting.Proposal",
          "name": "_proposal",
          "type": "tuple"
        }
      ],
      "name": "registerProposal",
      "type": "event"
    },
    {
      "anonymous": false,
      "inputs": [
        {
          "components": [
            {
              "internalType": "bool",
              "name": "isRegistered",
              "type": "bool"
            },
            {
              "internalType": "uint256",
              "name": "hasVoted",
              "type": "uint256"
            },
            {
              "internalType": "uint256",
              "name": "votedProposalId",
              "type": "uint256"
            }
          ],
          "indexed": false,
          "internalType": "struct Voting.Voter",
          "name": "_voter",
          "type": "tuple"
        }
      ],
      "name": "registerVote",
      "type": "event"
    },
    {
      "anonymous": false,
      "inputs": [
        {
          "components": [
            {
              "internalType": "bool",
              "name": "isRegistered",
              "type": "bool"
            },
            {
              "internalType": "uint256",
              "name": "hasVoted",
              "type": "uint256"
            },
            {
              "internalType": "uint256",
              "name": "votedProposalId",
              "type": "uint256"
            }
          ],
          "indexed": false,
          "internalType": "struct Voting.Voter",
          "name": "_voter",
          "type": "tuple"
        },
        {
          "components": [
            {
              "internalType": "address",
              "name": "proposalAddress",
              "type": "address"
            },
            {
              "internalType": "string",
              "name": "description",
              "type": "string"
            },
            {
              "internalType": "uint256",
              "name": "voteCount",
              "type": "uint256"
            },
            {
              "internalType": "uint256",
              "name": "numberFinalist",
              "type": "uint256"
            }
          ],
          "indexed": false,
          "internalType": "struct Voting.Proposal",
          "name": "_proposal",
          "type": "tuple"
        }
      ],
      "name": "setVote",
      "type": "event"
    },
    {
      "inputs": [
        {
          "internalType": "uint256",
          "name": "",
          "type": "uint256"
        }
      ],
      "name": "Proposals",
      "outputs": [
        {
          "internalType": "address",
          "name": "proposalAddress",
          "type": "address"
        },
        {
          "internalType": "string",
          "name": "description",
          "type": "string"
        },
        {
          "internalType": "uint256",
          "name": "voteCount",
          "type": "uint256"
        },
        {
          "internalType": "uint256",
          "name": "numberFinalist",
          "type": "uint256"
        }
      ],
      "stateMutability": "view",
      "type": "function",
      "constant": true
    },
    {
      "inputs": [
        {
          "internalType": "address",
          "name": "",
          "type": "address"
        }
      ],
      "name": "Voters",
      "outputs": [
        {
          "internalType": "bool",
          "name": "isRegistered",
          "type": "bool"
        },
        {
          "internalType": "uint256",
          "name": "hasVoted",
          "type": "uint256"
        },
        {
          "internalType": "uint256",
          "name": "votedProposalId",
          "type": "uint256"
        }
      ],
      "stateMutability": "view",
      "type": "function",
      "constant": true
    },
    {
      "inputs": [],
      "name": "Winner",
      "outputs": [
        {
          "internalType": "address",
          "name": "proposalAddress",
          "type": "address"
        },
        {
          "internalType": "string",
          "name": "description",
          "type": "string"
        },
        {
          "internalType": "uint256",
          "name": "voteCount",
          "type": "uint256"
        },
        {
          "internalType": "uint256",
          "name": "numberFinalist",
          "type": "uint256"
        }
      ],
      "stateMutability": "view",
      "type": "function",
      "constant": true
    },
    {
      "inputs": [
        {
          "internalType": "uint256",
          "name": "",
          "type": "uint256"
        }
      ],
      "name": "finalist",
      "outputs": [
        {
          "internalType": "address",
          "name": "proposalAddress",
          "type": "address"
        },
        {
          "internalType": "string",
          "name": "description",
          "type": "string"
        },
        {
          "internalType": "uint256",
          "name": "voteCount",
          "type": "uint256"
        },
        {
          "internalType": "uint256",
          "name": "numberFinalist",
          "type": "uint256"
        }
      ],
      "stateMutability": "view",
      "type": "function",
      "constant": true
    },
    {
      "inputs": [],
      "name": "owner",
      "outputs": [
        {
          "internalType": "address",
          "name": "",
          "type": "address"
        }
      ],
      "stateMutability": "view",
      "type": "function",
      "constant": true
    },
    {
      "inputs": [],
      "name": "renounceOwnership",
      "outputs": [],
      "stateMutability": "nonpayable",
      "type": "function"
    },
    {
      "inputs": [
        {
          "internalType": "address",
          "name": "newOwner",
          "type": "address"
        }
      ],
      "name": "transferOwnership",
      "outputs": [],
      "stateMutability": "nonpayable",
      "type": "function"
    },
    {
      "inputs": [],
      "name": "workflowStatus",
      "outputs": [
        {
          "internalType": "enum Voting.WorkflowStatus",
          "name": "",
          "type": "uint8"
        }
      ],
      "stateMutability": "view",
      "type": "function",
      "constant": true
    },
    {
      "inputs": [],
      "name": "getAllProposals",
      "outputs": [
        {
          "components": [
            {
              "internalType": "address",
              "name": "proposalAddress",
              "type": "address"
            },
            {
              "internalType": "string",
              "name": "description",
              "type": "string"
            },
            {
              "internalType": "uint256",
              "name": "voteCount",
              "type": "uint256"
            },
            {
              "internalType": "uint256",
              "name": "numberFinalist",
              "type": "uint256"
            }
          ],
          "internalType": "struct Voting.Proposal[]",
          "name": "",
          "type": "tuple[]"
        }
      ],
      "stateMutability": "view",
      "type": "function",
      "constant": true
    },
    {
      "inputs": [
        {
          "internalType": "address",
          "name": "_voter",
          "type": "address"
        }
      ],
      "name": "registerVoter",
      "outputs": [],
      "stateMutability": "nonpayable",
      "type": "function"
    },
    {
      "inputs": [],
      "name": "startProposals",
      "outputs": [],
      "stateMutability": "nonpayable",
      "type": "function"
    },
    {
      "inputs": [
        {
          "internalType": "string",
          "name": "_description",
          "type": "string"
        }
      ],
      "name": "voterAddProposal",
      "outputs": [],
      "stateMutability": "nonpayable",
      "type": "function"
    },
    {
      "inputs": [],
      "name": "endProposals",
      "outputs": [],
      "stateMutability": "nonpayable",
      "type": "function"
    },
    {
      "inputs": [],
      "name": "startVote",
      "outputs": [],
      "stateMutability": "nonpayable",
      "type": "function"
    },
    {
      "inputs": [
        {
          "internalType": "uint256",
          "name": "_proposalId",
          "type": "uint256"
        }
      ],
      "name": "vote",
      "outputs": [],
      "stateMutability": "nonpayable",
      "type": "function"
    },
    {
      "inputs": [],
      "name": "endVote",
      "outputs": [],
      "stateMutability": "nonpayable",
      "type": "function"
    },
    {
      "inputs": [],
      "name": "countVote",
      "outputs": [
        {
          "components": [
            {
              "internalType": "address",
              "name": "proposalAddress",
              "type": "address"
            },
            {
              "internalType": "string",
              "name": "description",
              "type": "string"
            },
            {
              "internalType": "uint256",
              "name": "voteCount",
              "type": "uint256"
            },
            {
              "internalType": "uint256",
              "name": "numberFinalist",
              "type": "uint256"
            }
          ],
          "internalType": "struct Voting.Proposal[]",
          "name": "",
          "type": "tuple[]"
        }
      ],
      "stateMutability": "nonpayable",
      "type": "function"
    }
  ],
  "bytecode": "0x60806040523480156200001157600080fd5b50620000446200002f6200004a640100000000026401000000009004565b62000052640100000000026401000000009004565b62000116565b600033905090565b60008060009054906101000a900473ffffffffffffffffffffffffffffffffffffffff169050816000806101000a81548173ffffffffffffffffffffffffffffffffffffffff021916908373ffffffffffffffffffffffffffffffffffffffff1602179055508173ffffffffffffffffffffffffffffffffffffffff168173ffffffffffffffffffffffffffffffffffffffff167f8be0079c531659141344cd1fd0a4f28419497f9722a3daafe3b4186f6b6457e060405160405180910390a35050565b613a0680620001266000396000f3fe608060405234801561001057600080fd5b5060043610610128576000357c010000000000000000000000000000000000000000000000000000000090048063a1edffa2116100bf578063d1dbe7d81161008e578063d1dbe7d814610242578063d27bfebc14610275578063dfc66cd91461027f578063f2fde38b146102b2578063fdedaa8a146102ce57610128565b8063a1edffa2146101db578063b2b98ed2146101f9578063b92239461461021a578063cceb68f51461022457610128565b80635f39ff21116100fb5780635f39ff211461018d578063715018a6146101a9578063873fbf36146101b35780638da5cb5b146101bd57610128565b80630121b93f1461012d5780631a6cd2fd1461014957806338db6dd3146101675780634c0a6af014610183575b600080fd5b61014760048036038101906101429190612719565b610300565b005b61015161066b565b60405161015e9190612e7d565b60405180910390f35b610181600480360381019061017c91906126a3565b610ff3565b005b61018b611305565b005b6101a760048036038101906101a291906126d0565b61145f565b005b6101b16118cc565b005b6101bb611954565b005b6101c5611aae565b6040516101d29190612e16565b60405180910390f35b6101e3611ad7565b6040516101f09190612ef1565b60405180910390f35b610201611aea565b6040516102119493929190612e31565b60405180910390f35b610222611bb0565b005b61022c611d0a565b6040516102399190612e7d565b60405180910390f35b61025c60048036038101906102579190612719565b611e65565b60405161026c9493929190612e31565b60405180910390f35b61027d611f4d565b005b61029960048036038101906102949190612719565b6120a7565b6040516102a99493929190612e31565b60405180910390f35b6102cc60048036038101906102c791906126a3565b61218f565b005b6102e860048036038101906102e391906126a3565b612287565b6040516102f793929190612eba565b60405180910390f35b600160003373ffffffffffffffffffffffffffffffffffffffff1673ffffffffffffffffffffffffffffffffffffffff16815260200190815260200160002060000160009054906101000a900460ff1661038f576040517f08c379a000000000000000000000000000000000000000000000000000000000815260040161038690613019565b60405180910390fd5b600360058111156103a3576103a2613546565b5b600860009054906101000a900460ff1660058111156103c5576103c4613546565b5b14610405576040517f08c379a00000000000000000000000000000000000000000000000000000000081526004016103fc90613199565b60405180910390fd5b60028181548110610419576104186135a4565b5b906000526020600020906004020160030154600160003373ffffffffffffffffffffffffffffffffffffffff1673ffffffffffffffffffffffffffffffffffffffff16815260200190815260200160002060010154146104ae576040517f08c379a00000000000000000000000000000000000000000000000000000000081526004016104a5906131d9565b60405180910390fd5b6002805490508111156104f6576040517f08c379a00000000000000000000000000000000000000000000000000000000081526004016104ed906130f9565b60405180910390fd5b600160003373ffffffffffffffffffffffffffffffffffffffff1673ffffffffffffffffffffffffffffffffffffffff1681526020019081526020016000206001016000815480929190610549906134ce565b919050555080600160003373ffffffffffffffffffffffffffffffffffffffff1673ffffffffffffffffffffffffffffffffffffffff16815260200190815260200160002060020181905550600281815481106105a9576105a86135a4565b5b906000526020600020906004020160020160008154809291906105cb906134ce565b91905055507fe34d34dafde67910b72eb992ab07b8e3b167f4310917922f8c04ef1ddac0f225600160003373ffffffffffffffffffffffffffffffffffffffff1673ffffffffffffffffffffffffffffffffffffffff16815260200190815260200160002060028381548110610644576106436135a4565b5b9060005260206000209060040201604051610660929190613236565b60405180910390a150565b60606106756122be565b73ffffffffffffffffffffffffffffffffffffffff16610693611aae565b73ffffffffffffffffffffffffffffffffffffffff16146106e9576040517f08c379a00000000000000000000000000000000000000000000000000000000081526004016106e090613099565b60405180910390fd5b600460058111156106fd576106fc613546565b5b600860009054906101000a900460ff16600581111561071f5761071e613546565b5b1461075f576040517f08c379a000000000000000000000000000000000000000000000000000000000815260040161075690612fb9565b60405180910390fd5b600160028054905010156107a8576040517f08c379a000000000000000000000000000000000000000000000000000000000815260040161079f90613059565b60405180910390fd5b6000600360006107b8919061238a565b60005b6002805490508110156108315781600282815481106107dd576107dc6135a4565b5b906000526020600020906004020160020154111561081e5760028181548110610809576108086135a4565b5b90600052602060002090600402016002015491505b8080610829906134ce565b9150506107bb565b5060005b6002805490508110156109a8578160028281548110610857576108566135a4565b5b90600052602060002090600402016002015414156109955760028181548110610883576108826135a4565b5b906000526020600020906004020160030160008154809291906108a5906134ce565b91905055506003600282815481106108c0576108bf6135a4565b5b906000526020600020906004020190806001815401808255809150506001900390600052602060002090600402016000909190919091506000820160009054906101000a900473ffffffffffffffffffffffffffffffffffffffff168160000160006101000a81548173ffffffffffffffffffffffffffffffffffffffff021916908373ffffffffffffffffffffffffffffffffffffffff16021790555060018201816001019080546109729061341d565b61097d9291906123ae565b50600282015481600201556003820154816003015550505b80806109a0906134ce565b915050610835565b5060016003805490501115610ccd576003600860006101000a81548160ff021916908360058111156109dd576109dc613546565b5b0217905550600260006109f0919061238a565b60005b600380549050811015610afd57600260038281548110610a1657610a156135a4565b5b906000526020600020906004020190806001815401808255809150506001900390600052602060002090600402016000909190919091506000820160009054906101000a900473ffffffffffffffffffffffffffffffffffffffff168160000160006101000a81548173ffffffffffffffffffffffffffffffffffffffff021916908373ffffffffffffffffffffffffffffffffffffffff1602179055506001820181600101908054610ac89061341d565b610ad39291906123ae565b50600282015481600201556003820154816003015550508080610af5906134ce565b9150506109f3565b507f62cb2da7d4426a55685890fa160d9b31fa5b70ac8ff0045c619c6f1572d271e560046003604051610b31929190612f0c565b60405180910390a17fa1227b9b076270285678b52a556c3293c8cdac54afc6845b321b28d0998b76186001604051610b699190612e9f565b60405180910390a16002805480602002602001604051908101604052809291908181526020016000905b82821015610cc157838290600052602060002090600402016040518060800160405290816000820160009054906101000a900473ffffffffffffffffffffffffffffffffffffffff1673ffffffffffffffffffffffffffffffffffffffff1673ffffffffffffffffffffffffffffffffffffffff168152602001600182018054610c1c9061341d565b80601f0160208091040260200160405190810160405280929190818152602001828054610c489061341d565b8015610c955780601f10610c6a57610100808354040283529160200191610c95565b820191906000526020600020905b815481529060010190602001808311610c7857829003601f168201915b505050505081526020016002820154815260200160038201548152505081526020019060010190610b93565b50505050915050610ff0565b6005600860006101000a81548160ff02191690836005811115610cf357610cf2613546565b5b02179055506003600081548110610d0d57610d0c6135a4565b5b90600052602060002090600402016001016004600101908054610d2f9061341d565b610d3a92919061243b565b506003600081548110610d5057610d4f6135a4565b5b9060005260206000209060040201600301546004600301819055506003600081548110610d8057610d7f6135a4565b5b9060005260206000209060040201600201546004600201819055506003600081548110610db057610daf6135a4565b5b906000526020600020906004020160000160009054906101000a900473ffffffffffffffffffffffffffffffffffffffff16600460000160006101000a81548173ffffffffffffffffffffffffffffffffffffffff021916908373ffffffffffffffffffffffffffffffffffffffff1602179055507f62cb2da7d4426a55685890fa160d9b31fa5b70ac8ff0045c619c6f1572d271e560046005604051610e58929190612f0c565b60405180910390a17fa1227b9b076270285678b52a556c3293c8cdac54afc6845b321b28d0998b76186000604051610e909190612e9f565b60405180910390a16002805480602002602001604051908101604052809291908181526020016000905b82821015610fe857838290600052602060002090600402016040518060800160405290816000820160009054906101000a900473ffffffffffffffffffffffffffffffffffffffff1673ffffffffffffffffffffffffffffffffffffffff1673ffffffffffffffffffffffffffffffffffffffff168152602001600182018054610f439061341d565b80601f0160208091040260200160405190810160405280929190818152602001828054610f6f9061341d565b8015610fbc5780601f10610f9157610100808354040283529160200191610fbc565b820191906000526020600020905b815481529060010190602001808311610f9f57829003601f168201915b505050505081526020016002820154815260200160038201548152505081526020019060010190610eba565b505050509150505b90565b610ffb6122be565b73ffffffffffffffffffffffffffffffffffffffff16611019611aae565b73ffffffffffffffffffffffffffffffffffffffff161461106f576040517f08c379a000000000000000000000000000000000000000000000000000000000815260040161106690613099565b60405180910390fd5b6000600581111561108357611082613546565b5b600860009054906101000a900460ff1660058111156110a5576110a4613546565b5b146110e5576040517f08c379a00000000000000000000000000000000000000000000000000000000081526004016110dc906130d9565b60405180910390fd5b600160008273ffffffffffffffffffffffffffffffffffffffff1673ffffffffffffffffffffffffffffffffffffffff16815260200190815260200160002060000160009054906101000a900460ff1615611175576040517f08c379a000000000000000000000000000000000000000000000000000000000815260040161116c90613159565b60405180910390fd5b61117d611aae565b73ffffffffffffffffffffffffffffffffffffffff168173ffffffffffffffffffffffffffffffffffffffff1614156111eb576040517f08c379a00000000000000000000000000000000000000000000000000000000081526004016111e2906130b9565b60405180910390fd5b60018060008373ffffffffffffffffffffffffffffffffffffffff1673ffffffffffffffffffffffffffffffffffffffff16815260200190815260200160002060000160006101000a81548160ff0219169083151502179055506000600160008373ffffffffffffffffffffffffffffffffffffffff1673ffffffffffffffffffffffffffffffffffffffff168152602001908152602001600020600101819055507fe1691ec2d1d7ea1065e1ce1c50ec6fc3dd2904cc77b482d69652cd0bc1bbf247600160008373ffffffffffffffffffffffffffffffffffffffff1673ffffffffffffffffffffffffffffffffffffffff1681526020019081526020016000206040516112fa919061321b565b60405180910390a150565b61130d6122be565b73ffffffffffffffffffffffffffffffffffffffff1661132b611aae565b73ffffffffffffffffffffffffffffffffffffffff1614611381576040517f08c379a000000000000000000000000000000000000000000000000000000000815260040161137890613099565b60405180910390fd5b6002600581111561139557611394613546565b5b600860009054906101000a900460ff1660058111156113b7576113b6613546565b5b146113f7576040517f08c379a00000000000000000000000000000000000000000000000000000000081526004016113ee90613179565b60405180910390fd5b6003600860006101000a81548160ff0219169083600581111561141d5761141c613546565b5b02179055507f62cb2da7d4426a55685890fa160d9b31fa5b70ac8ff0045c619c6f1572d271e560026003604051611455929190612f0c565b60405180910390a1565b600160003373ffffffffffffffffffffffffffffffffffffffff1673ffffffffffffffffffffffffffffffffffffffff16815260200190815260200160002060000160009054906101000a900460ff166114ee576040517f08c379a00000000000000000000000000000000000000000000000000000000081526004016114e590613019565b60405180910390fd5b6001600581111561150257611501613546565b5b600860009054906101000a900460ff16600581111561152457611523613546565b5b14611564576040517f08c379a000000000000000000000000000000000000000000000000000000000815260040161155b90612ff9565b60405180910390fd5b60405160200161157390613119565b604051602081830303815290604052805190602001208160405160200161159a9190612f35565b6040516020818303038152906040528051906020012014156115f1576040517f08c379a00000000000000000000000000000000000000000000000000000000081526004016115e890613139565b60405180910390fd5b60005b60028054905081101561177b57816040516020016116129190612f35565b604051602081830303815290604052805190602001206002828154811061163c5761163b6135a4565b5b906000526020600020906004020160010160405160200161165d9190612f57565b6040516020818303038152906040528051906020012014156116b4576040517f08c379a00000000000000000000000000000000000000000000000000000000081526004016116ab90612f79565b60405180910390fd5b3373ffffffffffffffffffffffffffffffffffffffff16600282815481106116df576116de6135a4565b5b906000526020600020906004020160000160009054906101000a900473ffffffffffffffffffffffffffffffffffffffff1673ffffffffffffffffffffffffffffffffffffffff161415611768576040517f08c379a000000000000000000000000000000000000000000000000000000000815260040161175f90613039565b60405180910390fd5b8080611773906134ce565b9150506115f4565b50600260405180608001604052803373ffffffffffffffffffffffffffffffffffffffff168152602001838152602001600081526020016000815250908060018154018082558091505060019003906000526020600020906004020160009091909190915060008201518160000160006101000a81548173ffffffffffffffffffffffffffffffffffffffff021916908373ffffffffffffffffffffffffffffffffffffffff16021790555060208201518160010190805190602001906118439291906124c8565b50604082015181600201556060820151816003015550507f6cb77ec222aa3d9b9b5fd2409689a266d90f61137408a9112a14d920eed4397e60405180608001604052803373ffffffffffffffffffffffffffffffffffffffff1681526020018381526020016000815260200160008152506040516118c191906131f9565b60405180910390a150565b6118d46122be565b73ffffffffffffffffffffffffffffffffffffffff166118f2611aae565b73ffffffffffffffffffffffffffffffffffffffff1614611948576040517f08c379a000000000000000000000000000000000000000000000000000000000815260040161193f90613099565b60405180910390fd5b61195260006122c6565b565b61195c6122be565b73ffffffffffffffffffffffffffffffffffffffff1661197a611aae565b73ffffffffffffffffffffffffffffffffffffffff16146119d0576040517f08c379a00000000000000000000000000000000000000000000000000000000081526004016119c790613099565b60405180910390fd5b600060058111156119e4576119e3613546565b5b600860009054906101000a900460ff166005811115611a0657611a05613546565b5b14611a46576040517f08c379a0000000000000000000000000000000000000000000000000000000008152600401611a3d906131b9565b60405180910390fd5b6001600860006101000a81548160ff02191690836005811115611a6c57611a6b613546565b5b02179055507f62cb2da7d4426a55685890fa160d9b31fa5b70ac8ff0045c619c6f1572d271e560006001604051611aa4929190612f0c565b60405180910390a1565b60008060009054906101000a900473ffffffffffffffffffffffffffffffffffffffff16905090565b600860009054906101000a900460ff1681565b60048060000160009054906101000a900473ffffffffffffffffffffffffffffffffffffffff1690806001018054611b219061341d565b80601f0160208091040260200160405190810160405280929190818152602001828054611b4d9061341d565b8015611b9a5780601f10611b6f57610100808354040283529160200191611b9a565b820191906000526020600020905b815481529060010190602001808311611b7d57829003601f168201915b5050505050908060020154908060030154905084565b611bb86122be565b73ffffffffffffffffffffffffffffffffffffffff16611bd6611aae565b73ffffffffffffffffffffffffffffffffffffffff1614611c2c576040517f08c379a0000000000000000000000000000000000000000000000000000000008152600401611c2390613099565b60405180910390fd5b60036005811115611c4057611c3f613546565b5b600860009054906101000a900460ff166005811115611c6257611c61613546565b5b14611ca2576040517f08c379a0000000000000000000000000000000000000000000000000000000008152600401611c9990612fd9565b60405180910390fd5b6004600860006101000a81548160ff02191690836005811115611cc857611cc7613546565b5b02179055507f62cb2da7d4426a55685890fa160d9b31fa5b70ac8ff0045c619c6f1572d271e560016002604051611d00929190612f0c565b60405180910390a1565b60606002805480602002602001604051908101604052809291908181526020016000905b82821015611e5c57838290600052602060002090600402016040518060800160405290816000820160009054906101000a900473ffffffffffffffffffffffffffffffffffffffff1673ffffffffffffffffffffffffffffffffffffffff1673ffffffffffffffffffffffffffffffffffffffff168152602001600182018054611db79061341d565b80601f0160208091040260200160405190810160405280929190818152602001828054611de39061341d565b8015611e305780601f10611e0557610100808354040283529160200191611e30565b820191906000526020600020905b815481529060010190602001808311611e1357829003601f168201915b505050505081526020016002820154815260200160038201548152505081526020019060010190611d2e565b50505050905090565b60028181548110611e7557600080fd5b90600052602060002090600402016000915090508060000160009054906101000a900473ffffffffffffffffffffffffffffffffffffffff1690806001018054611ebe9061341d565b80601f0160208091040260200160405190810160405280929190818152602001828054611eea9061341d565b8015611f375780601f10611f0c57610100808354040283529160200191611f37565b820191906000526020600020905b815481529060010190602001808311611f1a57829003601f168201915b5050505050908060020154908060030154905084565b611f556122be565b73ffffffffffffffffffffffffffffffffffffffff16611f73611aae565b73ffffffffffffffffffffffffffffffffffffffff1614611fc9576040517f08c379a0000000000000000000000000000000000000000000000000000000008152600401611fc090613099565b60405180910390fd5b60016005811115611fdd57611fdc613546565b5b600860009054906101000a900460ff166005811115611fff57611ffe613546565b5b1461203f576040517f08c379a000000000000000000000000000000000000000000000000000000000815260040161203690613079565b60405180910390fd5b6002600860006101000a81548160ff0219169083600581111561206557612064613546565b5b02179055507f62cb2da7d4426a55685890fa160d9b31fa5b70ac8ff0045c619c6f1572d271e56001600260405161209d929190612f0c565b60405180910390a1565b600381815481106120b757600080fd5b90600052602060002090600402016000915090508060000160009054906101000a900473ffffffffffffffffffffffffffffffffffffffff16908060010180546121009061341d565b80601f016020809104026020016040519081016040528092919081815260200182805461212c9061341d565b80156121795780601f1061214e57610100808354040283529160200191612179565b820191906000526020600020905b81548152906001019060200180831161215c57829003601f168201915b5050505050908060020154908060030154905084565b6121976122be565b73ffffffffffffffffffffffffffffffffffffffff166121b5611aae565b73ffffffffffffffffffffffffffffffffffffffff161461220b576040517f08c379a000000000000000000000000000000000000000000000000000000000815260040161220290613099565b60405180910390fd5b600073ffffffffffffffffffffffffffffffffffffffff168173ffffffffffffffffffffffffffffffffffffffff16141561227b576040517f08c379a000000000000000000000000000000000000000000000000000000000815260040161227290612f99565b60405180910390fd5b612284816122c6565b50565b60016020528060005260406000206000915090508060000160009054906101000a900460ff16908060010154908060020154905083565b600033905090565b60008060009054906101000a900473ffffffffffffffffffffffffffffffffffffffff169050816000806101000a81548173ffffffffffffffffffffffffffffffffffffffff021916908373ffffffffffffffffffffffffffffffffffffffff1602179055508173ffffffffffffffffffffffffffffffffffffffff168173ffffffffffffffffffffffffffffffffffffffff167f8be0079c531659141344cd1fd0a4f28419497f9722a3daafe3b4186f6b6457e060405160405180910390a35050565b50805460008255600402906000526020600020908101906123ab919061254e565b50565b8280546123ba9061341d565b90600052602060002090601f0160209004810192826123dc576000855561242a565b82601f106123ed578054855561242a565b8280016001018555821561242a57600052602060002091601f016020900482015b8281111561242957825482559160010191906001019061240e565b5b50905061243791906125ac565b5090565b8280546124479061341d565b90600052602060002090601f01602090048101928261246957600085556124b7565b82601f1061247a57805485556124b7565b828001600101855582156124b757600052602060002091601f016020900482015b828111156124b657825482559160010191906001019061249b565b5b5090506124c491906125ac565b5090565b8280546124d49061341d565b90600052602060002090601f0160209004810192826124f6576000855561253d565b82601f1061250f57805160ff191683800117855561253d565b8280016001018555821561253d579182015b8281111561253c578251825591602001919060010190612521565b5b50905061254a91906125ac565b5090565b5b808211156125a857600080820160006101000a81549073ffffffffffffffffffffffffffffffffffffffff021916905560018201600061258f91906125c9565b600282016000905560038201600090555060040161254f565b5090565b5b808211156125c55760008160009055506001016125ad565b5090565b5080546125d59061341d565b6000825580601f106125e75750612606565b601f01602090049060005260206000209081019061260591906125ac565b5b50565b600061261c6126178461328b565b613266565b90508281526020810184848401111561263857612637613607565b5b6126438482856133db565b509392505050565b60008135905061265a816139a2565b92915050565b600082601f83011261267557612674613602565b5b8135612685848260208601612609565b91505092915050565b60008135905061269d816139b9565b92915050565b6000602082840312156126b9576126b8613611565b5b60006126c78482850161264b565b91505092915050565b6000602082840312156126e6576126e5613611565b5b600082013567ffffffffffffffff8111156127045761270361360c565b5b61271084828501612660565b91505092915050565b60006020828403121561272f5761272e613611565b5b600061273d8482850161268e565b91505092915050565b60006127528383612c48565b905092915050565b6127638161336e565b82525050565b6127728161336e565b82525050565b6000612783826132e1565b61278d8185613304565b93508360208202850161279f856132bc565b8060005b858110156127db57848403895281516127bc8582612746565b94506127c7836132f7565b925060208a019950506001810190506127a3565b50829750879550505050505092915050565b6127f681613380565b82525050565b61280581613380565b82525050565b612814816133c9565b82525050565b6000612825826132ec565b61282f8185613315565b935061283f8185602086016133ea565b61284881613616565b840191505092915050565b600061285e826132ec565b6128688185613326565b93506128788185602086016133ea565b61288181613616565b840191505092915050565b600081546128998161341d565b6128a38186613315565b945060018216600081146128be57600181146128d057612903565b60ff1983168652602086019350612903565b6128d9856132cc565b60005b838110156128fb578154818901526001820191506020810190506128dc565b808801955050505b50505092915050565b600081546129198161341d565b6129238186613326565b9450600182166000811461293e576001811461295057612983565b60ff1983168652602086019350612983565b612959856132cc565b60005b8381101561297b5781548189015260018201915060208101905061295c565b808801955050505b50505092915050565b6000612999602083613326565b91506129a482613634565b602082019050919050565b60006129bc602683613326565b91506129c78261365d565b604082019050919050565b60006129df601183613326565b91506129ea826136ac565b602082019050919050565b6000612a02601883613326565b9150612a0d826136d5565b602082019050919050565b6000612a25601383613326565b9150612a30826136fe565b602082019050919050565b6000612a48601183613326565b9150612a5382613727565b602082019050919050565b6000612a6b602683613326565b9150612a7682613750565b604082019050919050565b6000612a8e601683613326565b9150612a998261379f565b602082019050919050565b6000612ab1601c83613326565b9150612abc826137c8565b602082019050919050565b6000612ad4602083613326565b9150612adf826137f1565b602082019050919050565b6000612af7601b83613326565b9150612b028261381a565b602082019050919050565b6000612b1a601583613326565b9150612b2582613843565b602082019050919050565b6000612b3d601c83613326565b9150612b488261386c565b602082019050919050565b6000612b60600083613326565b9150612b6b82613895565b600082019050919050565b6000612b83601983613326565b9150612b8e82613898565b602082019050919050565b6000612ba6601f83613326565b9150612bb1826138c1565b602082019050919050565b6000612bc9601983613326565b9150612bd4826138ea565b602082019050919050565b6000612bec600b83613326565b9150612bf782613913565b602082019050919050565b6000612c0f601e83613326565b9150612c1a8261393c565b602082019050919050565b6000612c32601683613326565b9150612c3d82613965565b602082019050919050565b6000608083016000830151612c60600086018261275a565b5060208301518482036020860152612c78828261281a565b9150506040830151612c8d6040860182612df8565b506060830151612ca06060860182612df8565b508091505092915050565b6000608083016000830151612cc3600086018261275a565b5060208301518482036020860152612cdb828261281a565b9150506040830151612cf06040860182612df8565b506060830151612d036060860182612df8565b508091505092915050565b6000608083016000808401549050612d258161344f565b612d32600087018261275a565b50600184018583036020870152612d49838261288c565b92505060028401549050612d5c81613483565b612d696040870182612df8565b5060038401549050612d7a81613483565b612d876060870182612df8565b50819250505092915050565b606082016000808301549050612da881613469565b612db560008601826127ed565b5060018301549050612dc681613483565b612dd36020860182612df8565b5060028301549050612de481613483565b612df16040860182612df8565b5050505050565b612e01816133bf565b82525050565b612e10816133bf565b82525050565b6000602082019050612e2b6000830184612769565b92915050565b6000608082019050612e466000830187612769565b8181036020830152612e588186612853565b9050612e676040830185612e07565b612e746060830184612e07565b95945050505050565b60006020820190508181036000830152612e978184612778565b905092915050565b6000602082019050612eb460008301846127fc565b92915050565b6000606082019050612ecf60008301866127fc565b612edc6020830185612e07565b612ee96040830184612e07565b949350505050565b6000602082019050612f06600083018461280b565b92915050565b6000604082019050612f21600083018561280b565b612f2e602083018461280b565b9392505050565b60006020820190508181036000830152612f4f8184612853565b905092915050565b60006020820190508181036000830152612f71818461290c565b905092915050565b60006020820190508181036000830152612f928161298c565b9050919050565b60006020820190508181036000830152612fb2816129af565b9050919050565b60006020820190508181036000830152612fd2816129d2565b9050919050565b60006020820190508181036000830152612ff2816129f5565b9050919050565b6000602082019050818103600083015261301281612a18565b9050919050565b6000602082019050818103600083015261303281612a3b565b9050919050565b6000602082019050818103600083015261305281612a5e565b9050919050565b6000602082019050818103600083015261307281612a81565b9050919050565b6000602082019050818103600083015261309281612aa4565b9050919050565b600060208201905081810360008301526130b281612ac7565b9050919050565b600060208201905081810360008301526130d281612aea565b9050919050565b600060208201905081810360008301526130f281612b0d565b9050919050565b6000602082019050818103600083015261311281612b30565b9050919050565b6000602082019050818103600083015261313281612b53565b9050919050565b6000602082019050818103600083015261315281612b76565b9050919050565b6000602082019050818103600083015261317281612b99565b9050919050565b6000602082019050818103600083015261319281612bbc565b9050919050565b600060208201905081810360008301526131b281612bdf565b9050919050565b600060208201905081810360008301526131d281612c02565b9050919050565b600060208201905081810360008301526131f281612c25565b9050919050565b600060208201905081810360008301526132138184612cab565b905092915050565b60006060820190506132306000830184612d93565b92915050565b600060808201905061324b6000830185612d93565b818103606083015261325d8184612d0e565b90509392505050565b6000613270613281565b905061327c828261349d565b919050565b6000604051905090565b600067ffffffffffffffff8211156132a6576132a56135d3565b5b6132af82613616565b9050602081019050919050565b6000819050602082019050919050565b60008190508160005260206000209050919050565b600081519050919050565b600081519050919050565b6000602082019050919050565b600082825260208201905092915050565b600082825260208201905092915050565b600082825260208201905092915050565b600073ffffffffffffffffffffffffffffffffffffffff82169050919050565b600060ff82169050919050565b6000819050919050565b60006133798261339f565b9050919050565b60008115159050919050565b600081905061339a8261398e565b919050565b600073ffffffffffffffffffffffffffffffffffffffff82169050919050565b6000819050919050565b60006133d48261338c565b9050919050565b82818337600083830152505050565b60005b838110156134085780820151818401526020810190506133ed565b83811115613417576000848401525b50505050565b6000600282049050600182168061343557607f821691505b6020821081141561344957613448613575565b5b50919050565b600061346261345d83613627565b613337565b9050919050565b600061347c61347783613627565b613357565b9050919050565b600061349661349183613627565b613364565b9050919050565b6134a682613616565b810181811067ffffffffffffffff821117156134c5576134c46135d3565b5b80604052505050565b60006134d9826133bf565b91507fffffffffffffffffffffffffffffffffffffffffffffffffffffffffffffffff82141561350c5761350b613517565b5b600182019050919050565b7f4e487b7100000000000000000000000000000000000000000000000000000000600052601160045260246000fd5b7f4e487b7100000000000000000000000000000000000000000000000000000000600052602160045260246000fd5b7f4e487b7100000000000000000000000000000000000000000000000000000000600052602260045260246000fd5b7f4e487b7100000000000000000000000000000000000000000000000000000000600052603260045260246000fd5b7f4e487b7100000000000000000000000000000000000000000000000000000000600052604160045260246000fd5b600080fd5b600080fd5b600080fd5b600080fd5b6000601f19601f8301169050919050565b6000600182049050919050565b7f74686973206465736372697074696f6e20697320616c72656164792075736564600082015250565b7f4f776e61626c653a206e6577206f776e657220697320746865207a65726f206160008201527f6464726573730000000000000000000000000000000000000000000000000000602082015250565b7f63616e6e6f7420636f756e7420766f7465000000000000000000000000000000600082015250565b7f63616e6e6f742073746f7020766f74652073657373696f6e0000000000000000600082015250565b7f63616e6e6f74206164642070726f706f73616c00000000000000000000000000600082015250565b7f596f7520617265206e6f7420766f746572000000000000000000000000000000600082015250565b7f596f752061726520616c7265616479207265676973746572206c696b6520707260008201527f6f706f73616c0000000000000000000000000000000000000000000000000000602082015250565b7f746865726520617265206e6f2066696e616c6973747300000000000000000000600082015250565b7f63616e6e6f7420656e642073657373696f6e2070726f706f73616c7300000000600082015250565b7f4f776e61626c653a2063616c6c6572206973206e6f7420746865206f776e6572600082015250565b7f546865204f776e657220646f6e27742070617274696369706174650000000000600082015250565b7f63616e6e6f7420616464206e657720766f746572730000000000000000000000600082015250565b7f746869732070726f706f73616c20646f6573206e6f7420657869737400000000600082015250565b50565b7f796f7572206465736372697074696f6e20697320656d70747900000000000000600082015250565b7f54686520766f74657220697320616c7265616479207265676973746572656400600082015250565b7f63616e6e6f742073746172742073657373696f6e20766f746500000000000000600082015250565b7f63616e6e6f7420766f7465000000000000000000000000000000000000000000600082015250565b7f63616e6e6f742073746172742073657373696f6e2070726f706f73616c730000600082015250565b7f596f75206861766520616c726561647920766f74656400000000000000000000600082015250565b6006811061399f5761399e613546565b5b50565b6139ab8161336e565b81146139b657600080fd5b50565b6139c2816133bf565b81146139cd57600080fd5b5056fea2646970667358221220c74e54c3a683e72c8f852dc1d01adf6bd346829302788907931cc3a029b97c4264736f6c63430008070033",
  "immutableReferences": {},
  "source": "// SPDX-License-Identifier: MIT\n\npragma solidity ^0.8.7;\nimport \"@openzeppelin/contracts/access/Ownable.sol\";\n\n/*\n* @title decentralized voting system\n* @author nobodyw, https://github.com/nobodyw\n* @notice The contract allows you to register your proposal and vote for your favorite proposal,\n    in case there are several finalists, a second round can be done.\n    more details on the voting process in the contract doc ../docs/Voting.md\n    .\n*/\ncontract Voting is Ownable{\n\n    mapping(address => Voter) public Voters;\n    Proposal[] public Proposals;\n    Proposal[] public finalist;\n    Proposal public Winner;\n\n    struct Voter {\n        bool isRegistered;\n        uint hasVoted;\n        uint votedProposalId;\n    }\n    struct Proposal {\n        address proposalAddress;\n        string description;\n        uint voteCount;\n        uint numberFinalist;\n    }\n\n    WorkflowStatus public workflowStatus;\n    enum WorkflowStatus {\n        RegisteringVoters,\n        ProposalsRegistrationStarted,\n        ProposalsRegistrationEnded,\n        VotingSessionStarted,\n        VotingSessionEnded,\n        VotesTallied\n    }\n\n/*\n* @dev Call after voter registration\n* @param _voter is the Struct of the new voter\n*/\n    event registerVote(Voter _voter);\n/*\n* @dev Call after a change of stage in the vote\n* @param _oldWorkFlow is the WorkflowStatus step that will change, _newWorkFlow is the step of the new WorkflowStatus\n*/\n    event changeWorkflowStatus(WorkflowStatus _oldWorkFlow, WorkflowStatus _newWorkFlow);\n/*\n* @dev Call after a voter registers their proposal\n* @param _proposal is the struct of new Proposal\n*/\n    event registerProposal(Proposal _proposal);\n/*\n* @dev Call after a voter votes for their preferred proposal\n* @param _voter is the struct of the voter, _proposal is the structure for which we just voted\n*/\n    event setVote(Voter _voter, Proposal _proposal);\n/*\n* @dev Call after the vote count to know the winner\n* @param _secondTurn if true a winner has been found, if false we go back to a new voting session with the finalists\n*/\n    event eventCountVote(bool _secondTurn);\n\n    modifier onlyVoter(){\n        require(Voters[msg.sender].isRegistered,\"You are not voter\");\n        _;\n    }\n\n/*\n* @return Array of all Proposal\n*/\n    function getAllProposals() external view returns(Proposal[] memory){\n        return Proposals;\n    }\n\n/*\n* @notice The owner registers the voters\n* @param _voter is the address of the voter\n*/\n    function registerVoter(address _voter) external onlyOwner{\n        require(workflowStatus == WorkflowStatus.RegisteringVoters, 'cannot add new voters');\n        require(!Voters[_voter].isRegistered, \"The voter is already registered\");\n        require(_voter != owner(),\"The Owner don't participate\");\n\n        Voters[_voter].isRegistered = true;\n        Voters[_voter].hasVoted = 0;\n        emit registerVote(Voters[_voter]);\n    }\n\n/*\n * @notice The owner starts the proposal session\n * @dev The workFlowStatus change RegisteringVoters to ProposalsRegistrationStarted\n*/\n    function startProposals() external onlyOwner{\n        require(workflowStatus == WorkflowStatus.RegisteringVoters,'cannot start session proposals');\n\n        workflowStatus = WorkflowStatus.ProposalsRegistrationStarted;\n        emit changeWorkflowStatus(WorkflowStatus.RegisteringVoters, WorkflowStatus.ProposalsRegistrationStarted);\n    }\n\n/*\n * @notice The voter adds himself as a proposal\n * @param _description is the description of the new proposition\n*/\n    function voterAddProposal(string memory _description) external onlyVoter{\n        require(workflowStatus == WorkflowStatus.ProposalsRegistrationStarted,'cannot add proposal');\n        require(keccak256(abi.encode(_description)) != keccak256(abi.encode(\"\")), 'your description is empty');\n\n        for (uint i = 0; i < Proposals.length; i++) {\n            require(keccak256(abi.encode(Proposals[i].description)) != keccak256(abi.encode(_description)),\n                \"this description is already used\");\n            require(Proposals[i].proposalAddress != msg.sender, \"You are already register like proposal\");\n        }\n        Proposals.push(Proposal(msg.sender,_description,0,0));\n        emit registerProposal(Proposal(msg.sender,_description,0,0));\n    }\n\n/*\n * @notice The owner stop the proposal session\n * @dev The workFlowStatus change ProposalsRegistrationStarted to ProposalsRegistrationEnded\n*/\n    function endProposals() external onlyOwner{\n        require(workflowStatus == WorkflowStatus.ProposalsRegistrationStarted,'cannot end session proposals');\n\n        workflowStatus = WorkflowStatus.ProposalsRegistrationEnded;\n        emit changeWorkflowStatus(WorkflowStatus.ProposalsRegistrationStarted,WorkflowStatus.ProposalsRegistrationEnded);\n    }\n\n/*\n * @notice The owner start the voting session\n * @dev The workFlowStatus change ProposalsRegistrationEnded to VotingSessionStarted\n*/\n    function startVote() external onlyOwner{\n        require(workflowStatus == WorkflowStatus.ProposalsRegistrationEnded,'cannot start session vote');\n\n        workflowStatus = WorkflowStatus.VotingSessionStarted;\n        emit changeWorkflowStatus(WorkflowStatus.ProposalsRegistrationEnded, WorkflowStatus.VotingSessionStarted);\n    }\n\n/*\n * @notice The voter votes for their preferred proposal\n * @param _proposalId is the id of the proposal for which we want to vote\n*/\n    function vote(uint _proposalId) external onlyVoter{\n        require(workflowStatus == WorkflowStatus.VotingSessionStarted, 'cannot vote');\n\n        require(Voters[msg.sender].hasVoted == Proposals[_proposalId].numberFinalist,'You have already voted');\n        require(_proposalId <= Proposals.length ,'this proposal does not exist');\n\n        Voters[msg.sender].hasVoted++;\n        Voters[msg.sender].votedProposalId = _proposalId;\n\n        Proposals[_proposalId].voteCount++;\n        emit setVote(Voters[msg.sender], Proposals[_proposalId]);\n    }\n\n/*\n * @notice The owner stop the voting session\n * @dev The workFlowStatus change ProposalsRegistrationStarted to ProposalsRegistrationEnded\n*/\n    function endVote() external onlyOwner{\n        require(workflowStatus == WorkflowStatus.VotingSessionStarted,'cannot stop vote session');\n\n        workflowStatus = WorkflowStatus.VotingSessionEnded;\n        emit changeWorkflowStatus(WorkflowStatus.ProposalsRegistrationStarted, WorkflowStatus.ProposalsRegistrationEnded);\n    }\n\n\n/*\n * @dev Count the number of Proposals that have the same number of votes.\n        If several finalists have been found, we return the workflow to sessionVoteStart\n        If only one finalist has been found, the Winner is determined and the workflow ends with VotesTallied\n * @return array which contains the finalistS or the finalist\n*/\n    function countVote() external onlyOwner returns(Proposal[] memory) {\n        require(workflowStatus == WorkflowStatus.VotingSessionEnded, 'cannot count vote');\n        require(Proposals.length >= 1,'there are no finalists');\n        uint indexWinner = 0;\n        delete finalist;\n\n        for(uint i = 0; i < Proposals.length; i++){\n            if(Proposals[i].voteCount > indexWinner){\n                indexWinner = Proposals[i].voteCount;\n            }\n        }\n        for(uint i = 0; i < Proposals.length; i++){\n            if(Proposals[i].voteCount == indexWinner){\n                Proposals[i].numberFinalist++;\n                finalist.push(Proposals[i]);\n            }\n        }\n        if(finalist.length > 1){\n            workflowStatus = WorkflowStatus.VotingSessionStarted;\n            delete Proposals;\n            for(uint i = 0; i < finalist.length; i++){\n                Proposals.push(finalist[i]);\n            }\n            emit changeWorkflowStatus(WorkflowStatus.VotingSessionEnded,WorkflowStatus.VotingSessionStarted);\n            emit eventCountVote(true);\n            return Proposals;\n        }\n\n        workflowStatus = WorkflowStatus.VotesTallied;\n\n        Winner.description = finalist[0].description;\n        Winner.numberFinalist = finalist[0].numberFinalist;\n        Winner.voteCount = finalist[0].voteCount;\n        Winner.proposalAddress = finalist[0].proposalAddress;\n\n        emit changeWorkflowStatus(WorkflowStatus.VotingSessionEnded,WorkflowStatus.VotesTallied);\n        emit eventCountVote(false);\n        return Proposals;\n    }\n}",
  "sourcePath": "/workspace/smart_contract/contracts/Voting.sol",
  "compiler": {
    "name": "solc",
    "version": "0.8.7+commit.e28d00a7.Emscripten.clang"
  },
  "schemaVersion": "3.4.5",
  "updatedAt": "2022-03-05T16:27:57.030Z",
  "networkType": "ethereum",
  "devdoc": {
    "kind": "dev",
    "methods": {
      "owner()": {
        "details": "Returns the address of the current owner."
      },
      "renounceOwnership()": {
        "details": "Leaves the contract without owner. It will not be possible to call `onlyOwner` functions anymore. Can only be called by the current owner. NOTE: Renouncing ownership will leave the contract without an owner, thereby removing any functionality that is only available to the owner."
      },
      "transferOwnership(address)": {
        "details": "Transfers ownership of the contract to a new account (`newOwner`). Can only be called by the current owner."
      }
    },
    "version": 1
  },
  "userdoc": {
    "kind": "user",
    "methods": {},
    "version": 1
  }
}